:020000040800F2
:10000000D83A0020193500080D3500080F350008D2
:10001000153500081135000813350008173500089C
:100020001735000817350008173500081735000880
:100030001735000817350008BF0A0008470C0008EC
:10004000CD210008D7210008E1210008EB2100089C
:10005000F5210008FF2100080922000813220008EA
:100060001D22000827220008312200083B22000838
:10007000452200084F220008592200086322000888
:100080006D22000877220008812200088B220008D8
:10009000952200089F220008A9220008B322000828
:1000A000BD220008C7220008D1220008DB22000878
:1000B000E5220008EF220008F922000803230008C7
:1000C0000D23000817230008212300082B23000814
:1000D000352300083F230008492300085323000864
:0C00E0005D23000867230008712300085E
:1000EC0070B505000E0014000020DFF8D017097859
:1000FC00002902D0122020700DE02878401E032821
:10010C0007D800F0B9FC6E6100F0BAFC002020703A
:10011C0001E00120207070BD80B500F025FD00F0DD
:10012C0065FA00F08AFA00F0E6FA00F02FFA00F017
:10013C00C3FD00F0EFFD00F019FE00F09EFA00F098
:10014C00BBFA00F042FE00F013FD00F069FF01BDA8
:10015C0010B50024DFF8B0080078012841D100F078
:10016C008BFC0400DFF854070078002806D0DFF879
:10017C004C070078401EDFF844170870DFF83C0786
:10018C00007800282AD1DFF838070078002825D11C
:10019C0000F01AFBDFF874080078DFF8741851F8D7
:1001AC002000DFF870180860DFF860080078DFF8CE
:1001BC0068180978884211D0DFF858080068C06BBD
:1001CC00401CDFF850180968C863DFF85008006855
:1001DC00401CDFF84818086000F067FC200000F0B5
:1001EC004FFC10BD80B50020DFF81C1809780129E0
:1001FC0014D100F041FCDFF8C416097800290BD1AA
:10020C00DFF8BC160978FF2906D0DFF8B416097898
:10021C00491CDFF8AC26117000F032FC01BD80B532
:10022C000020DFF8E4170978012924D100F024FC20
:10023C00DFF88C16097800291BD0DFF884160978B2
:10024C00491EDFF87C261170DFF874160978002936
:10025C000CD1DFF868160978002904D100F010FCE5
:10026C0000F084FA07E000F00BFC04E000F008FC5E
:10027C0001E000F005FC01BD80B5DFF88C070078CB
:10028C00002819D100F0A0FADFF88C07DFF87C17F2
:10029C0009780170DFF874070078DFF8741751F8EB
:1002AC002000DFF870170860DFF85407DFF86417D8
:1002BC000968016000F0E7FB01BD10B500240220C5
:1002CC0000F092FF00F0D8FB0400DFF85407002187
:1002DC000160200000F0D4FB642000F085FF00F0EA
:1002EC00CBFB0400DFF83C07DFF83417096801602A
:1002FC00DFF8340701210170200000F0C1FB10BDB4
:10030C0038B5002400F087FC00F0B6FB0400DFF8E1
:10031C001C070068401CDFF814170860200000F070
:10032C00AFFBDFF8E406007801285ED1DFF80007A8
:10033C000078002803D0022805D002D309E0012060
:10034C000CE000200AE00120DFF8E41601220A701C
:10035C0004E00120DFF8D81600220A70C0B2002891
:10036C0043D0DFF8D006056820E0002085F8350082
:10037C0095F83400000715D4DFF8BC06007895F822
:10038C003A100843DFF8B016087095F83800DFF81B
:10039C00AC16405C95F83910084395F83810DFF826
:1003AC009C2688546D69200000F06AFB95F8360095
:1003BC003F281AD000F060FB0400286B0028F1D015
:1003CC00286B401E2863286B0028EBD195F834006D
:1003DC0037210842C9D095F8340010F0C80085F8D0
:1003EC003400012085F83500C2E731BDF8B50400B2
:1003FC00A07ADFF84C56405DC0B20519ED7ADFF8F3
:10040C004066AD5DC0B2EDB215EBC005EDB2DFF8E4
:10041C00006656F8256000273763716296F8341031
:10042C00914386F8341086F8353096F83410090765
:10043C0013D4DFF80416097896F83A201143DFF844
:10044C00F8251170C0B2DFF8F415415C96F839202C
:10045C001143C0B2DFF8E42581542100300000F0D4
:10046C0051F8306A002804D0316A300000F063F88B
:10047C00F4612800C0B2F2BDDFF884150968C861C8
:10048C00DFF87C15096891F838100918C97ADFF87B
:10049C007025126892F839201143DFF86425126830
:1004AC0092F838201218D172817ADFF8542512682C
:1004BC0092F83A2011438172DFF84405006890F8F5
:1004CC003800C0B2DFF87415415CDFF834251268CF
:1004DC0092F839209143C0B2DFF860258154C0B244
:1004EC00DFF85815405C00280BD1DFF84C0500787C
:1004FC00DFF80C15096891F83A108843DFF83815C5
:10050C000870704710B490F83820D2B25318DB7AC8
:10051C0090F83940A343D2B25418E372D2B25218B5
:10052C00D27A002A05D18A7A90F83A0032EA000091
:10053C00887210BC704770B490F8382090F83A303C
:10054C0090F83940086810E0D2B21518ED7AA5433E
:10055C00D2B21618F572D2B21518ED7A002D02D15E
:10056C00857A9D438572091D08680028ECD170BC02
:10057C00704700218172002104E0C9B20A180023DF
:10058C00D372491CC9B20829F7D3704710B5F021B2
:10059C00DFF8B00400F0E1F8002012E0411C80B25A
:1005AC001822DFF8A03402FB003289B21823DFF8DE
:1005BC00944403FB014100231370516092A15161DB
:1005CC00401C80B20928E9D380B21821DFF87424CA
:1005DC0001FB002200201070002050608AA05061A6
:1005EC00DFF86404DFF85C14016010BDDFF83C0434
:1005FC0000210160B14800210170B1480021017057
:10060C00DFF8480400210170DFF8FC0300210170C1
:10061C00DFF8080400210160DFF804040021016008
:10062C00DFF82C0400210160DFF8F80300210160E1
:10063C00DFF8F403002101707047DFF8FC030021A0
:10064C000170002005E0C0B2DFF8F0130022425424
:10065C00401CC0B20828F6D3DFF8BC03002101709F
:10066C00DFF8A80300210170DFF8A8030021016066
:10067C00DFF88C0300210160704710B586B00320B1
:10068C0004900020039080200290DFF8C8030190B2
:10069C004FF6FF7000903F23DFF8BC2300210FF2D0
:1006AC00491000F007FE040005AADFF8B0133F2044
:1006BC0000F066FE06B010BD10B586B003200490A5
:1006CC000020039080200290DFF8940301904FF6F5
:1006DC00FE7000903E23DFF88C2300210FF22D10CA
:1006EC0000F0E8FD040005AADFF87C133E2000F0C2
:1006FC0047FE06B010BD10B54FF4F261DFF86C0385
:10070C0000F02BF84FF48071C14800F026F800205F
:10071C0010E0411CC0B25822DFF8503302FB00320B
:10072C00C9B25823DFF8444303FB0141516136A1A0
:10073C001165401CC0B21528EBD3C0B25821CB4A6E
:10074C0001FB0022002050612FA01065B948002148
:10075C000160C748C549016010BD03E0002202706A
:10076C00401C491E89B20029F8D1704710B50024ED
:10077C0000F082F9040051480078002820D150483C
:10078C00007800281CD100F01FF8A0480078A04980
:10079C0051F820009F4908609C4800789E490978D0
:1007AC0088420DD09B480068C06B401C9949096871
:1007BC00C8639A480068401C9849086000F071F9B9
:1007CC00200000F05DF910BD9B4800789C49405C0E
:1007DC00C0B20100C9B2994A895C994A895C11EB93
:1007EC00C0008A490870704780B5002100F044F9B8
:1007FC0001008B480068401C894A1060080000F01A
:10080C003FF900F0BAF9F1E73F00000080B50100B4
:10081C00002002E0C82000F0E7FC834800780028A4
:10082C00F8D0804800686421B0FBF1F07D49086085
:10083C007C480068002805D18E4800210170FF20FB
:10084C0000F00FFE00F018F98149754A12680A6031
:10085C00734900220A6000F013F97D480068714961
:10086C000968B0FBF1F0D0F164008249087000F027
:10087C0088F900F004F8642000F0B6FCE2E71CB53F
:10088C00002417E000A92000C0B200F0A6FDC0B201
:10089C0000280ED1E4B25E4850F82400002808D09D
:1008AC00012806D0C168826812EB8101816401992C
:1008BC00C164641CE4B2402CE4D313BDD0380020D6
:1008CC00D13800202DE9F84304000F0090461D009C
:1008DC005FF0000900F0D0F8814665480668002EEC
:1008EC0000F08780706962490860484600F0C8F8DB
:1008FC00376086F83640002086F83400002086F8F1
:10090C00350000203063099870600898F060C6F8D4
:10091C0008800A9830827582002086F83B00E4B289
:10092C00E00886F8380014F0070086F8370001203C
:10093C0096F83810884086F83A00012096F837105F
:10094C00884086F839000020F061002030620020D9
:10095C00B062002070620020F06300207064002000
:10096C0030640020B0640020F06426A030650020C4
:10097C0005E0C0B216EB800100224A65401CC0B2F3
:10098C000028F6D0300000F042F9300000F0F1F809
:10099C0000F072F88146E4B21D4840F82460254806
:1009AC00006870610020B06122480068002802D005
:1009BC002048006886611F4806601F48007896F83A
:1009CC003A1008431C49087096F838001B49405CE3
:1009DC0096F83910084396F83810184A88541B4872
:1009EC000078401C19490870484600F049F800206E
:1009FC0003E0484600F044F84220BDE8F2830000D2
:100A0C00983800203F000000D5380020D338002053
:100A1C008C320020A0380020D238002080380020F2
:100A2C00943800208C380020CF380020B0380020BB
:100A3C00D7380020A4380020D438002058380020A3
:100A4C00143300088C33002084380020D638002062
:100A5C00903800208C2E002088300020DC340008D8
:100A6C008C2C0020882E0020EC3400087C1E0020EA
:100A7C009C380020CE380020EFF3108072B67047FF
:100A8C0080F3108870471B48FF210170002080F311
:100A9C00098819480121017018481949016062B68A
:100AAC00FEE7164816490160704714481449016066
:100ABC00704772B6EFF3098028B1203880E8F00F48
:100ACC0010490968086000B50F4880475DF804EBD1
:100ADC000E480F490A7802700A480E490A680260EB
:100AEC00106890E8F00F203080F309884EF0040E67
:100AFC0062B6704722ED00E0D538002004ED00E02E
:100B0C000000001098380020130C0008D238002088
:100B1C00D3380020A038002040B2002808D540B2BD
:100B2C0010F00F004C4A8018090100F8041C03E077
:100B3C0040B24A4A09018154704780B5411EB1F157
:100B4C00807F01D301200EE0401E454908600F2133
:100B5C005FF0FF30FFF7E0FF4248002101604248A0
:100B6C0007210160002002BD404800210180704730
:100B7C00704780B500F0E0FC01BD80B500F0DDFCF5
:100B8C0001BD80B500F0DAFC01BD030010005FF080
:100B9C0080720260001F0360001F7FF00102026080
:100BAC00001F5FF012320260001F5FF00332026020
:100BBC00001F5FF002320260001F5FF00132026022
:100BCC00001F0160001F5FF011310160001F5FF01A
:100BDC0010310160001F5FF009310160001F5FF0F0
:100BEC0008310160001F5FF007310160001F5FF0EA
:100BFC0006310160001F5FF005310160001F5FF0DE
:100C0C0004310160704780B500F099FC01BD80B5DE
:100C1C0000F096FC01BD80B500F093FC13480088F1
:100C2C00401C1249088011480088642804D30F48DE
:100C3C000021018000F0C2F801BD80B5FFF71CFF58
:100C4C000B490978491C0A4A1170FFF719FFFFF785
:100C5C0057FBFFF77DFA01BD18ED00E000E400E062
:100C6C0014E000E018E000E010E000E0C8380020DC
:100C7C00D038002080B54FF47A71B0FBF1F0FFF75B
:100C8C005CFF002800D0FEE701BD10B450F8041B37
:100C9C0081B102681218001D50F8043BDC0744BFF8
:100CAC00A9F10104E31852F8044B43F8044B091F53
:100CBC00F9D1EBE710BC704780B550211448FFF711
:100CCC004CFD00200EE0411C80B2114A12EB0012C8
:100CDC0089B20F4B13EB01110023137051600AA161
:100CEC00D160401C80B20428EDD380B2084911EBCE
:100CFC000012002010700020506003A0D060034848
:100D0C000349016001BD00003F000000883800204D
:100D1C00C837002080B578211348FFF71EFD00214D
:100D2C000EE089B21820104A00FB012089B218226B
:100D3C000D4B02FB01321832426009A24261491C80
:100D4C0089B20429EDD389B21820074A00FB01208F
:100D5C000021416002A1416102480349016001BDCB
:100D6C003F000000A83800208C36002010B5602110
:100D7C001148FFF7F2FC00200CE0411C80B2182255
:100D8C000D4B02FB003289B218230B4C03FB0141C3
:100D9C001160401C80B20328EFD380B21821064AA0
:100DAC0001FB00220020106002480349016010BDC5
:100DBC0000000000AC3800206837002080B58C485B
:100DCC00006800F061FCC0B202BD10B582B04FF4F7
:100DDC0020718B48FFF7C1FC40218A48FFF7BDFC0E
:100DEC00002013E0411C80B22822854B02FB00320C
:100DFC0089B22823824C03FB014164231370002326
:100E0C0082F82530D16078A11162401C80B20F2885
:100E1C00E8D380B228217A4A01FB002264201070AA
:100E2C00002082F825000020D0606FA010626F486F
:100E3C000021016070480021018070481021018060
:100E4C006C486F490160012000F07CFB6E49086022
:100E5C00002000F077FB6649086000AA6B496A48DD
:100E6C000068FFF73DF900AA694961480068FFF77F
:100E7C0037F900F001F813BD10B586B003200490CB
:100E8C000020039080200290624801904FF6FD7084
:100E9C0000903D23604A00210FF2D10000F00AFAC5
:100EAC00040005AA5D493D2000F06AFA06B010BDA9
:100EBC00032280F82520C9B2012905D1C1694B4A0A
:100ECC001268511841610DE08169002905D1C16991
:100EDC00464A12685118416104E08169434A12681C
:100EEC005118416142690823B2FBF3F101FB132154
:100EFC0089B2444A12EBC1021168002905D1106075
:100F0C000021C1600121918006E011681060C16070
:100F1C0008619188491C91800021016170474269E8
:100F2C000823B2FBF3F101FB132189B2354A12EB12
:100F3C00C1031968814206D1C1681960002908D023
:100F4C0000220A6105E00169C268CA60002A00D06B
:100F5C001161012180F825100021C160002101617F
:100F6C009888401E988070470000000038B501E05A
:100F7C00FFF755F900AA00211D48006800F008FB96
:100F8C00FFF730F919480068401C184908601748E9
:100F9C0001680822B1FBF2F000FB121080B2194973
:100FAC0011EBC00004680AE0022084F82500626896
:100FBC001000002802D0A168200090472C00002CC3
:100FCC00D6D0E5680948006861698842F6D12000EE
:100FDC00FFF7A5FF94F824000228E5D10121200099
:100FEC00FFF766FFE3E700003F000000B438002085
:100FFC00BC380020C0380020C6380020C43800207F
:10100C000C2A002018380020B8380020A43400081E
:10101C00B83400088C30002088320020FC340008E2
:10102C003848394908003949080039490800394914
:10103C00080039490800394908003949080039497C
:10104C00080039490800394908003949080039496C
:10105C00080039490800394908003949080039495C
:10106C00080039490800394908003949080039494C
:10107C00080039490800394908003949080039493C
:10108C00080039490800394908003949080039492C
:10109C00080039490800394908003949080039491C
:1010AC00080039490800394908003949080039490C
:1010BC0008003949080039490800394908003949FC
:1010CC0008003949080039490800394908003949EC
:1010DC0008003949080039490800394908003949DC
:1010EC0008003949080039490800394908003949CC
:1010FC0008003949080039490800394908003949BC
:10110C0008007047722100082C350008DA2A000804
:10111C00422D0008A62A0008EE3000081233000801
:10112C00823400088E34000830350008323500084F
:10113C003435000836350008383500083A350008D3
:10114C003C3500083E3500084035000842350008A3
:10115C004435000846350008483500084A35000873
:10116C004C3500084E350008503500085235000843
:10117C005435000856350008583500085A35000813
:10118C005C3500085E3500086035000862350008E3
:10119C006435000866350008683500086A350008B3
:1011AC006C3500086E350008703500087235000883
:1011BC00743500080C2A00201838002078350008F7
:1011CC007A3500087C3500087E350008803500082B
:1011DC0082350008843500088635000888350008FB
:1011EC00763500088A35000810B5040000202C491B
:1011FC00097800292BD12B480078002827D1002C06
:10120C0025D0FFF739FC2849096891F83810C9B284
:10121C00264A8A5C244B1B6893F839309A43C9B22E
:10122C00224BCA54C9B2214A895C002908D12049F1
:10123C0009781D4A126892F83A2091431C4A1170A1
:10124C00194909680C63FFF71BFCFFF78FFA10BDF7
:10125C0038B5134C2478002C01D055201FE0114CCC
:10126C002478002C01D0322019E0C0B24FF4616414
:10127C00C9B23C25694304FB0010D2B210184FF4DC
:10128C007A719BB24FF47A7202FB03F24FF47A73C9
:10129C00B2FBF3F201FB0020FFF7A6FF002032BDEA
:1012AC00D0380020D1380020983800205838002041
:1012BC00D43800202DE9F04784B006000F0090468A
:1012CC001D000024FFF7D8FB0400DFF85002007863
:1012DC00002804D02000FFF7D3FB3C204DE0EDB2FA
:1012EC00DFF8240250F82500002842D1EDB2DFF8D7
:1012FC001802012140F825102000FFF7C1FBDDF892
:10130C003490DDF838A0109C220092B25146484629
:10131C0000F006F923009BB2424639003000FFF77B
:10132C0034FCA4B202940F990191CDF800A00C9B4F
:10133C004A4601002800C0B2FFF7C4FA0600F6B214
:10134C00002E07D1DFF8D001007801280ED1FFF76D
:10135C000DFA0BE0FFF790FB0400EDB2DFF8A801EB
:10136C00002140F825102000FFF78AFB3000C0B2A6
:10137C0003E02000FFF784FB282004B0BDE8F087D1
:10138C0070B506000D00140000206449097800298E
:10139C0002D0122020701FE0FFF76EFBF6B2FF2E7A
:1013AC0003D15A49096891F83660F6B2564951F89A
:1013BC002610002904D1FFF763FB432020700BE0BB
:1013CC00012904D1FFF75CFB4320207004E00D657C
:1013DC00FFF756FB0020207070BD2DE9F041060090
:1013EC000C0000250020206000206060FFF744FB0B
:1013FC000500F6B2FF2E03D14448006890F8366021
:10140C00F6B2414850F82600002804D12800FFF716
:10141C0037FB432023E0012804D12800FFF730FBE1
:10142C0043201CE0017CC90704D42800FFF728FBEB
:10143C00452014E00027C668D0F808802800FFF784
:10144C001FFB00E07F1C404610F1040800680028D8
:10145C00F8D0B8002060F01B800060600020BDE870
:10146C00F08170B506000024FFF706FB0400F6B20D
:10147C00FF2E05D12548006890F83660012509E05B
:10148C002248006890F83600F6B2864201D1012558
:10149C0000E00025F6B21C4850F82600002804D1C4
:1014AC002000FFF7EDFA48202CE0012804D12000A1
:1014BC00FFF7E6FA432025E090F83810C9B2144A39
:1014CC008A5C90F839309A43C9B2114BCA54C9B2EC
:1014DC000F4A895C002906D10E49097890F83A2008
:1014EC0091430C4A117090F8341051F0080180F8B7
:1014FC0034102000FFF7C4FAEDB2012D01D1FFF733
:10150C0035F9002070BD00008C3200209838002086
:10151C0058380020D4380020D5380020D03800208E
:10152C00D30708D5920704D405E0491E00220260B7
:10153C00001D0029F9D170477047704770477047FC
:10154C007047704738B5040000204B4909780029D2
:10155C0001D000201BE0FFF78FFA48490D6847497E
:10156C000968002904D0454909684968434A116053
:10157C00FFF786FA002D09D0032028702C8100205B
:10158C0068603CA068612800FEF7F3FF280032BDBC
:10159C00F8B505000E00140000272878032802D0A7
:1015AC000120207064E034480078002802D002202A
:1015BC0020705DE032480078002802D00D202070A9
:1015CC0056E0FFF759FA07002889002808D0288927
:1015DC00401E28813800FFF753FA0020207047E0A6
:1015EC002848006890F8340050F00100254909683B
:1015FC0081F8340023480068002180F83510214818
:10160C00006806632800FEF737FF3800FFF738FA4A
:10161C00FFF7ACF8FFF730FA07001A48006890F8AB
:10162C003500002802D0022803D005E000202070ED
:10163C0009E00E20207006E0290012480068FEF731
:10164C0061FF0A2020700F480068002180F83410D8
:10165C000C480068002180F835100A480068002109
:10166C00C16108480068002101623800FFF708FAE0
:10167C00F1BD00003F000000D0380020843800206D
:10168C00D13800209838002038B50500002428787F
:10169C00032801D0012024E0FFF7EEF90400A87A1A
:1016AC0000280DD00023012200212800FEF79EFE09
:1016BC0005002000FFF7E4F9FFF758F8002010E0D0
:1016CC0028894FF6FF71884207D02889401C288151
:1016DC002000FFF7D5F9002003E02000FFF7D0F938
:1016EC00332032BDFF070D081A08280836084308B6
:1016FC0051085E086C087A0887089508A208B0089B
:10170C00BD08CB08D808E608F30801090E091C0926
:10171C0029093609430951095E096B0978098509BC
:10172C009209A009AD09B909C609D309E009ED0967
:10173C00FA09060A130A200A2C0A390A450A510A20
:10174C005E0A6A0A760A820A8E0A9A0AA60AB20AFD
:10175C00BE0ACA0AD50AE10AEC0AF80A030B0F0BF7
:10176C001A0B250B300B3B0B460B510B5C0B660B12
:10177C00710B7B0B860B900B9A0BA40BAF0BB90B5D
:10178C00C20BCC0BD60BDF0BE90BF20BFC0B050CD5
:10179C000E0C170C200C290C310C3A0C430C4B0C76
:1017AC00530C5B0C640C6C0C730C7B0C830C8A0C54
:1017BC00920C990CA00CA70CAE0CB50CBC0CC20C6A
:1017CC00C90CCF0CD50CDC0CE20CE80CED0CF30CBA
:1017DC00F90CFE0C030D080D0D0D120D170D1C0D43
:1017EC00200D250D290D2D0D310D350D390D3C0D0F
:1017FC00400D430D470D4A0D4D0D500D520D550D1D
:10180C00570D5A0D5C0D5E0D600D620D630D650D6F
:10181C00660D680D690D6A0D6B0D6B0D6C0D6C0D05
:10182C006D0D6D0D6D0D6D0D6D0D6C0D6C0D6B0DE0
:10183C006B0D6A0D690D680D660D650D630D620DFE
:10184C00600D5E0D5C0D5A0D570D550D520D500D62
:10185C004D0D4A0D470D430D400D3C0D390D350D09
:10186C00310D2D0D290D250D200D1C0D170D120DF3
:10187C000D0D080D030DFE0CF90CF30CED0CE80C22
:10188C00E20CDC0CD50CCF0CC90CC20CBC0CB50C8E
:10189C00AE0CA70CA00C990C920C8A0C830C7B0C34
:1018AC00730C6C0C640C5B0C530C4B0C430C3A0C13
:1018BC00310C290C200C170C0E0C050CFC0BF20B2C
:1018CC00E90BDF0BD60BCC0BC20BB90BAF0BA40B7C
:1018DC009A0B900B860B7B0B710B660B5C0B510BF5
:1018EC00460B3B0B300B250B1A0B0F0B030BF80A9B
:1018FC00EC0AE10AD50ACA0ABE0AB20AA60A9A0A70
:10190C008E0A820A760A6A0A5E0A510A450A390A5E
:10191C002C0A200A130A060AFA09ED09E009D30970
:10192C00C609B909AD09A0099209850978096B099D
:10193C005E0951094309360929091C090E090109D7
:10194C00F308E608D808CB08BD08B008A20895082B
:10195C0087087A086C085E0851084308360828087E
:10196C001A080D08FF07F107E407D607C807BB07DD
:10197C00AD07A00792078407770769075C074E0736
:10198C0041073307260718070B07FD06F006E2068A
:10199C00D506C806BB06AD06A006930686067906D4
:1019AC006C065E065106450638062B061E06110609
:1019BC000406F805EB05DE05D205C505B905AD0530
:1019CC00A005940588057C057005640558054C0533
:1019DC004005340529051D0512050605FB04EF0419
:1019EC00E404D904CE04C304B804AD04A2049804DE
:1019FC008D04830478046E0464045A044F04450473
:101A0C003C04320428041F0415040C040204F903DA
:101A1C00F003E703DE03D503CD03C403BB03B30319
:101A2C00AB03A3039A0392038B0383037B0374031B
:101A3C006C0365035E0357035003490342033C03E5
:101A4C0035032F03290322031C03160311030B0375
:101A5C0005030003FB02F602F102EC02E702E202CC
:101A6C00DE02D902D502D102CD02C902C502C202E0
:101A7C00BE02BB02B702B402B102AE02AC02A902B2
:101A8C00A702A402A202A0029E029C029B0299023F
:101A9C009802960295029402930293029202920289
:101AAC00910291029102910291029202920293028E
:101ABC009302940295029602980299029B029C0250
:101ACC009E02A002A202A402A702A902AC02AE02CC
:101ADC00B102B402B702BB02BE02C202C502C90205
:101AEC00CD02D102D502D902DE02E202E702EC02FB
:101AFC00F102F602FB02000305030B0311031603AC
:101B0C001C03220329032F0335033C03420349031F
:101B1C00500357035E0365036C0374037B03830359
:101B2C008B0392039A03A303AB03B303BB03C4035A
:101B3C00CD03D503DE03E703F003F90302040C0421
:101B4C0015041F04280432043C0445044F045A04B1
:101B5C0064046E04780483048D049804A204AD0418
:101B6C00B804C304CE04D904E404EF04FB04060552
:101B7C0012051D052905340540054C05580564055D
:101B8C0070057C0588059405A005AD05B905C5054E
:101B9C00D205DE05EB05F805040611061E062B061C
:101BAC003806450651065E066C06790686069306CF
:101BBC00A006AD06BB06C806D506E206F006FD0675
:101BCC000B0718072607330741074E075C07690701
:101BDC00770784079207A007AD07BB07C807D6078E
:101BEC00E407F1072DE9F04F4FF0000C4FF0000324
:101BFC0001EB9C6EBEF902503EF9404BBEF90290CF
:101C0C003EF9408BBEF902703EF9406BBEF902B052
:101C1C003EF940ABD044D944A8EB4A0AA9EB4B0B94
:101C2C004FEAA4044FEAA50504EBA60405EBA705AF
:101C3C00A4EB6606A5EB670704EBA80405EBA90566
:101C4C00A4EB6808A5EB690906EBAB06A7EBAA07A2
:101C5C00A6EB6B0B07EB6A0A458020F8044B478018
:101C6C0020F8046BA0F8029020F8048BA0F802A0D6
:101C7C0020F804BB03F1010393FAA3FC102BB7D19A
:101C8C00A0EB82014FF0100312090FF2361000F195
:101C9C00000006B403EB430C6144A2F5803202EB66
:101CAC008332B1F90250B1F90040A1EB0301B0F954
:101CBC0002B0B0F900A000F10400A5EB040E0EFB7D
:101CCC000BFC0AEB4B0E05FB0ACB04FB0ECAB1F95D
:101CDC000250B1F90040A1EB0301B0F90290B0F948
:101CEC00008000F10400A5EB040E0EFB09FC08EBD0
:101CFC00490E05FB08C904FB0EC8B1F90250B1F935
:101D0C000040A1EB0301B0F90270B0F9006000F1E2
:101D1C000400A5EB040E0EFB07FC06EB470E05FBBF
:101D2C0006C704FB0EC6B1F90250B1F9004001F12F
:101D3C000001D044D944A8EB4A0AA9EB4B0B4FEA5B
:101D4C00A4044FEAA50504EB264405EB2745A4EBB8
:101D5C00E636A5EBE73704EB284405EB2945A4EB65
:101D6C00E838A5EBE93906EB2B46A7EB2A47A6EB9F
:101D7C00EB3B07EBEA3A4D800C8019444F800E8008
:101D8C001944A1F80290A1F800801944A1F802A00E
:101D9C0021F804BBB2F5803283DA03EB430C6144C7
:101DAC00A2F101025FEA024E18BFA0EB0C007FF417
:101DBC0076AF06BC4FEA830392087FF46AAFBDE8A6
:101DCC00F08F0040000000400000004000005DDD8E
:101DDC00213BA3227E180000412D7EA5412D000041
:101DEC00412D00C000405DDD82E75DDD213B7EA51D
:101DFC00412D004000000040000000400000AA2AD5
:101E0C0094126B39460649327C0CA8118E23493248
:101E1C007C0CA3227E1821F77931AA2A9412A811DE
:101E2C008E235DDD213BA3227E180000412D95C63B
:101E3C00B13F461A2B1E58EE3735BEB4C53EA8111D
:101E4C008E235DDD213B63A97138DF089A28B7CD5D
:101E5C00C53E7EA5412D0000412D00C0004063A968
:101E6C002B1E21F77931BEB4C53EBEB47C0C58EEA6
:101E7C00373561AC213B95C6BAF9BAE571383BA749
:101E8C0037355DDD82E75DDD213B7EA5412D21F7F8
:101E9C0066D756D53F3D3BA78E23A811C9CAB7CDEF
:101EAC00C53E61AC7E18AA2AC1C295C6B13FBEB46C
:101EBC007C0C50F8041B61B150F8042BD30744BFC1
:101ECC00A9F101039A18002342F8043B091FFAD127
:101EDC00EFE7704738B5C0B2002817D0022816D0EB
:101EEC0015D3042814D012D3062828D01CD30828C4
:101EFC000CD00BD30A2809D008D30C2807D006D352
:101F0C000E2804D002D30F2824D02EE04FE04EE050
:101F1C0000F018F9DFF80412096851F480317F4A97
:101F2C00116000F013F942E000F00CF97B490968EC
:101F3C0051F40031794A116000F008F937E000F0F3
:101F4C0001F97649096851F48021744A116000F056
:101F5C00FDF82CE000F0F6F87149096851F0010128
:101F6C006F4A116000F0F2F821E06E490968491CD3
:101F7C0011F01F014901491CC0B2C9B2884216D2E6
:101F8C00C0B2B0F11001202291FBF2F4C0B21038B3
:101F9C00202190FBF1F505FB110500F0D3F8E4B21C
:101FAC0061490122AA4041F8242000F0CFF831BD4C
:101FBC0070B505000C00E4B2200000F0CDF8040E62
:101FCC00EDB2002D17D0022D16D015D3042D14D040
:101FDC0012D3062D2CD01DD3082D0CD00BD30A2DCB
:101FEC0009D008D30C2D3FD030D30E2D49D002D3BD
:101FFC000F2D54D061E090E08FE000F0A3F84B4936
:10200C000968090A0902E4B22143484A116000F048
:10201C009DF882E000F096F84449096831F47F415C
:10202C00E4B251EA0421414A116000F08FF874E0E7
:10203C0000F088F83D49096831F47F01E4B251EAB7
:10204C0004413A4A116000F081F866E000F07AF839
:10205C00374909680902090AE4B251EA0461344AB1
:10206C00116000F073F858E000F06CF83149096821
:10207C00090A0902E4B221432E4A116000F066F805
:10208C004BE000F05FF82B49096831F47F01E4B2B2
:10209C0051EA0441274A116000F058F83DE000F085
:1020AC0051F8244909680902090AE4B251EA0461A9
:1020BC00204A116000F04AF82FE01A480068401CD2
:1020CC0010F01F004001401CEDB2C0B2854224D27A
:1020DC00EDB2B5F11000042190FBF1F6EDB2B5F1C3
:1020EC001000042190FBF1F505FB110500F02AF816
:1020FC00F6B2114951F82610FF22EDB2EB009A40CE
:10210C009143E4B2EDB2EA0014FA02F21143F6B2D2
:10211C00094A42F8261000F019F870BD24ED00E0D1
:10212C0010E000E004E000E000E100E018ED00E069
:10213C001CED00E020ED00E000E400E072B670471A
:10214C0062B67047EFF3108072B6704780F3108858
:10215C007047B0FA80F0704790FAA0F0704730BF2B
:10216C00704720BF7047010080B5FFF7E7FF01BD46
:10217C0080B52A2803D21030C0B2FFF7ABFE01BDE8
:10218C0038B504000D002A2C06D2FFF7DBFF84497A
:10219C0041F82450FFF7DAFF31BD70B504000D0093
:1021AC002A2C0CD2FFF7CEFF06002900C9B214F17D
:1021BC001000C0B2FFF7FCFE3000FFF7C7FF70BD88
:1021CC0080B5002000F0D3F801BD80B5012000F0EF
:1021DC00CEF801BD80B5022000F0C9F801BD80B574
:1021EC00032000F0C4F801BD80B5042000F0BFF856
:1021FC0001BD80B5052000F0BAF801BD80B5062000
:10220C0000F0B5F801BD80B5072000F0B0F801BDB5
:10221C0080B5082000F0ABF801BD80B5092000F0B6
:10222C00A6F801BD80B50A2000F0A1F801BD80B56B
:10223C000B2000F09CF801BD80B50C2000F097F845
:10224C0001BD80B50D2000F092F801BD80B50E20C7
:10225C0000F08DF801BD80B50F2000F088F801BDAD
:10226C0080B5102000F083F801BD80B5112000F07E
:10227C007EF801BD80B5122000F079F801BD80B563
:10228C00132000F074F801BD80B5142000F06FF835
:10229C0001BD80B5152000F06AF801BD80B516208F
:1022AC0000F065F801BD80B5172000F060F801BDA5
:1022BC0080B5182000F05BF801BD80B5192000F046
:1022CC0056F801BD80B51A2000F051F801BD80B55B
:1022DC001B2000F04CF801BD80B51C2000F047F825
:1022EC0001BD80B51D2000F042F801BD80B51E2057
:1022FC0000F03DF801BD80B51F2000F038F801BD9D
:10230C0080B5202000F033F801BD80B5212000F00D
:10231C002EF801BD80B5222000F029F801BD80B552
:10232C00232000F024F801BD80B5242000F01FF814
:10233C0001BD80B5252000F01AF801BD80B526201E
:10234C0000F015F801BD80B5272000F010F801BD94
:10235C0080B5282000F00BF801BD80B5292000F0D5
:10236C0006F801BD80B52A2000F001F801BD10B5BA
:10237C000400FFF7E7FE0B490978491C094A117064
:10238C00FFF7E4FE2A2C06D2054850F82400010081
:10239C00002900D08047FDF7DBFE10BD00000000D7
:1023AC0044350020D038002000B585B00121042030
:1023BC0000F08AF901215FF0005000F095F930200F
:1023CC00ADF8000000208DF8030000A9754800F05E
:1023DC00DBF924200190002002900220049001A936
:1023EC00002000F035FA01A9102000F031FA01218B
:1023FC00002000F046FA0121102000F042FA0121E1
:10240C00102000F054FA05B000BDE0B50121012008
:10241C0000F06AF9E020ADF804000920ADF80000E6
:10242C000020ADF806000020ADF8020000A95FF016
:10243C00804000F057FA20215FF0804000F0C4FA91
:10244C0001215FF0804000F097FA07BD00B58BB01A
:10245C000121022000F028F95348009053480190C4
:10246C00102002904FF420700390002004908020E4
:10247C0005904FF4007006904FF4006007902020F8
:10248C0008904FF40050099000200A9000A9484889
:10249C0000F0D6FA0121464800F0F1FA0BB000BD6D
:1024AC0010B50024FFF780FFFFF7AFFFFFF7CEFF5B
:1024BC00002004000BE03F4830F814003D4931F88F
:1024CC00141011EB0040394941F82400641CB4F598
:1024DC00207FF0D310BD38B504000D0036483749C5
:1024EC00096801603648008800F0E2FA354909684D
:1024FC0000F0EEFA344908603448008800F0D8FA4D
:10250C003149096800F0E4FA01002F48006800F036
:10251C0021FB2F490860ADB22E482D49096840F8BF
:10252C002510200000F0BAFA2349096800F090FB4E
:10253C002749096800F000FC1F49096800F0C8FA37
:10254C00254908605FF07E502149096800F080FB46
:10255C001D49096800F0F0FB2049086019481F4923
:10256C000968016015481C49096801601A4800682F
:10257C0000F04EFC32BD10B50024002004000CE02D
:10258C00210089B2A4B2164830F81400FFF7A3FF5B
:10259C00A4B2144921F81400641CA4B2322CEFDB51
:1025AC0010BD000000080140207400407C14002085
:1025BC0044040240F01600086838002064380020FB
:1025CC007A00002070380020743800207800002039
:1025DC007C3800207C3400206C38002078380020B7
:1025EC00000000200437002030B40022002100231A
:1025FC0000245B4D2D6815F00C052A00002A04D030
:10260C00042A05D0082A06D021E05749016020E0B1
:10261C00554901601DE05249096811F47011504A86
:10262C00126812F48033890C891C002B03D14F4A99
:10263C00514301600AE04A4A1268920303D54B4A9F
:10264C005143016002E0484A5143016001E04649B0
:10265C0001604349096811F0F00212094449545CC5
:10266C000168E14041603E49096811F4E062120AD8
:10267C003F49545C4168E14081603949096811F473
:10268C006052D20A3A49545C4168E140C160344915
:10269C00096811F44042920B3649545CC168B1FB95
:1026AC00F4F1016130BC7047C9B2002905D0324940
:1026BC00096808433049086005E02F49096831EA88
:1026CC0000002D4908607047C9B2002905D02B497C
:1026DC00096808432949086005E02849096831EA76
:1026EC000000264908607047C9B2002905D024496A
:1026FC00096808432249086005E02149096831EA64
:10270C0000001F490860704710B40022002300210C
:10271C00C0B24409E4B22200012A02D10F490B686D
:10272C0006E0022A02D10F490B6801E015490B683B
:10273C00C0B210F01F0233FA02F0C00701D501211C
:10274C0000E000210800C0B210BC70470D480068C2
:10275C0050F080700B490860704700000010024078
:10276C00041002402010024000127A0000093D00C3
:10277C006400002074000020141002401810024065
:10278C001C10024024100240F0B400220026002449
:10279C0000250023002791F803C01CF00F0C6246A3
:1027AC0091F803C05FEACC6C01D58B781A430B7897
:1027BC001B0621D00368002406E0CD78482D02D1F9
:1027CC000125A5400561641C082C14D20125A540E7
:1027DC000E882E40AE42F6D1A5000F2616FA05F74C
:1027EC00BB4312FA05F52B43CD78282DE5D10125F5
:1027FC00A5404561E7E703600B88FF2B26DD4368A6
:10280C00002420E0012514F10806B5400E882E4066
:10281C00AE4217D1A5000F2616FA05F7BB4312FAE4
:10282C0005F52B43CD78282D04D1012514F108068C
:10283C00B5404561CD78482D04D1012514F1080629
:10284C00B5400561641C082CDCD34360F0BC7047B8
:10285C0030B400230022224C2468230040F6FE747E
:10286C008440A3430C684D682C438D682C43C96885
:10287C0021430A0012FA00F003431948036030BCEC
:10288C007047C9B2002908D015490968012212FA0B
:10289C0000F008431249086008E011490968012258
:1028AC0012FA00F031EA00000D4908607047C9B215
:1028BC00002909D00A4909684FF4805212FA00F035
:1028CC0008430749086009E0054909684FF480523C
:1028DC0012FA00F031EA000001490860704700006C
:1028EC0000740040002203881A00DFF82C31984253
:1028FC0012D0DFF83C3198420ED0B0F1804F0BD0A3
:10290C00DFF81831984207D0DFF81431984203D021
:10291C00DFF81031984204D14FF68F731A404B8870
:10292C001A43DFF80431984208D0DFF8003198429E
:10293C0004D04FF6FF431A40CB881A4302808A8892
:10294C0082850A880285DFF8D02090420FD0DFF80C
:10295C00E02090420BD0DFF8DC20904207D0DFF86B
:10296C00D820904203D0DFF8D420904201D1097ACC
:10297C000186012181827047C9B2002904D00188E7
:10298C0051F00101018004E001884FF6FE72114004
:10299C0001807047D2B2002A03D082891143818111
:1029AC0003E0828932EA010181817047C9B20029B2
:1029BC0004D0018851F08001018004E001884FF6B9
:1029CC007F7211400180704782884FF68F731A40D6
:1029DC008280828811438180704789B2C943018209
:1029EC00704730B4002200230024058A0D402B00D0
:1029FC008089084004009BB2002B04D0A4B2002CA8
:102A0C0001D0012200E000221000C0B230BC70479F
:102A1C0089B2C94301827047002C01400004004078
:102A2C0000080040000C0040001000400014004062
:102A3C000034014000400140004401400048014086
:102A4C0010B4002203681A006FF30E128B680C6A24
:102A5C0023430C6923434C6923438C692343CC697E
:102A6C0023434C6A23438C6A23431A430260CA688B
:102A7C0042600A6882604968C16010BC7047C9B284
:102A8C00002904D0016851F00101016004E00168E3
:102A9C004FF6FE721140016070470100002840F1B2
:102AAC000980F446404200F005F850F000406047C1
:102ABC00002800BF0AD0B0FA80F18840D1F19D0106
:102ACC00C905020672F1004241EB102070470A0062
:102ADC0090EA010F44BF81F0004100F0C1B800BF83
:102AEC00421A3CBF801A89184FF0004CC0F3C752F1
:102AFC00FF2A24D0C1F3C75313B3D21AD2F119034E
:102B0C0027DD4CEA01214CFA03F321EA0303D140FF
:102B1C00C20D4CEA0020401834BF20EA0C004CEAED
:102B2C005000D20553EA006373EB0C0C52EB1020EF
:102B3C00420012F1807F38BF7047C00DC00570474E
:102B4C00490212BF9A4200EB5120F8E7D2F1170369
:102B5C00D9D5704710B5FF2313EAD0541DBF13EA23
:102B6C00D1529C429A4239E0A41ADA0780EA010356
:102B7C00134042EA012142EA0020421A3CBF641E83
:102B8C0001EB4202090AB2FBF1FE01FB1E2212020A
:102B9C00B2FBF1F001FB10226EF30F201202B2FB1C
:102BAC00F1FE4EEA00207F3406DDFE2C24DA53EAD7
:102BBC00500050EBC45010BDD4F1020401FB1E2296
:102BCC0040F08071192C1DDC21FA04F0C4F12004B2
:102BDC00A140114371F10042584110BD9C421ABFF3
:102BEC0003EAD1529A420FE080EA010E0EF0004344
:102BFC00400004D0490016D143F0FF4010BD4900FD
:102C0C0008BFD343180010BD9C4205D1D21AF7D08F
:102C1C0001F00041484010BD4A0212BF084648402E
:102C2C0000F0004010BD4AB90902B1FA81F291409E
:102C3C0044B1A418C00140F000409EE7C90141F026
:102C4C00004152420002B0FA80F4A040141B94E7F9
:102C5C0090EA010F44BF81F00041FFF741BF00BF74
:102C6C00431A4FF000423EBF5340C01AC91800BF70
:102C7C00D3095FEAD05C13EB400F34BFB3EB410FC9
:102C8C0040E07CEBD1530CD342EA012122D8D1EBAA
:102C9C00402009D3400A28BF5FEA500140EBCC50DA
:102CAC007047401A15D04002B0FA80F2521C904086
:102CBC00400A4FEA3C23B3EB026384BF00EB730082
:102CCC0007E040F400001A16DB07C2F10102D04005
:102CDC0018437047182BFCDC31FA03F202FA03F3A9
:102CEC00591A38BF42F00102D2EB40203CBF4000E1
:102CFC00ACF1010C5FEACC5CC20572F100414CEB0B
:102D0C005020704713EB400F0FD24B0009D0ACEBA7
:102D1C00D153022B03DB4902172BDDDD70479143A6
:102D2C00401A4300D5D10020704713EB410FD0D38C
:102D3C006FF0000070470100FF2212EAD05C1DBF4B
:102D4C0012EAD153944593422BE09C44D30780EA7A
:102D5C0001021A4043EA002043EA0121A1FB0030A2
:102D6C00410038BF40007CF17F010BDBFE294ADAC1
:102D7C005B0842EAC15153EA006373F1004C51EB1A
:102D8C0010207047D1F1080CDCF120012FDB5B081F
:102D9C0010FA01F10B4373F1004120FA0CF0504191
:102DAC00704794451CBF02EAD153934280EA01025A
:102DBC0002F000421DD0400019D0490017D05BB979
:102DCC00634514D00902B1FA81F39940BCEB030CB2
:102DDC00C00140F00040C1E70002B0FA80FC10FADC
:102DEC000CF0B3EB0C0CC90141F00041B6E710003C
:102DFC00704740000AD0490008D010F1807F94BF82
:102E0C0011F1807F02E042F0FF407047D0437047E1
:102E1C004100090E7F3915D4D1F11F0114D44000A3
:102E2C0007D2C00140F00040C84048BF6FF00040DE
:102E3C007047C00140F00040C8404CBF4FF000400C
:102E4C00404270470020704700424FF0004058BF8E
:102E5C00C043704780B54F48006850F001004D49A1
:102E6C0008604D4800684D4908404B490860494886
:102E7C0000684B490840474908604648006830F4F0
:102E8C008020444908604448006830F4FE00424900
:102E9C00086044485FF41F01016000F005F84248E7
:102EAC005FF00061016001BD80B500F001F801BD6B
:102EBC0082B000200190002000903648006850F449
:102ECC008030344908603348006810F400300090BA
:102EDC000198401C01900098002803D10198B0F58E
:102EEC00A06FF0D12B480068800302D50120009020
:102EFC0001E0002000900098012847D12B48006881
:102F0C0050F01000294908602848006880088000AB
:102F1C00264908602548006850F0020023490860E3
:102F2C001D481D49096801601B481B49096801605F
:102F3C001948006850F4806017490860164800680A
:102F4C0030F47C10144908601348006850F4E81001
:102F5C00114908600F48006850F080700D490860F6
:102F6C000C4800688001FBD50B4800688008800085
:102F7C00094908600848006850F0020006490860DA
:102F8C000548006810F00C000828F9D102B0704711
:102F9C000000000000100240041002400000FFF886
:102FAC00FFFFF6FE0810024008ED00E00020024092
:102FBC0000B587B0FFF7D8F8FDF7AEF80320049002
:102FCC00002003904FF4A06002903048019028201C
:102FDC00009028232E4A00210FF21900FEF76AF9FF
:102FEC0005AA2C492820FEF7CBF9FDF745F900205E
:102FFC0007B000BD80B500F05FF800F06AF8FDF78F
:10300C0039FEFDF75AF900F0CAF8FFF749FAFFF755
:10301C00B2FA00F009F800F01CF80023002201219C
:10302C000020FEF715F9F8E710B582B00024FDF783
:10303C0023FD0400002000F0D9F81749086000AA0D
:10304C00164915480068FDF74BF82000FDF718FDF0
:10305C0013BD10B586B00024FDF70EFD040003204F
:10306C000490002003904FF4807002900C48019063
:10307C000E2000900E230B4A00210FF22D00FEF7BC
:10308C0019F92000FDF7FCFC06B010BD7C000020F7
:10309C00781400202435000860380020CC34000857
:1030AC000C260020082A002080B50A2300220021CB
:1030BC000020FEF7CDF8F8E780B5FFF7CBFE00F067
:1030CC00C1F87E20FFF720FB002801D0FFF73EFB64
:1030DC0001BD00B585B000A8FFF786FA019805B0D0
:1030EC0000BD1800E0B501210220FFF7FDFA40F207
:1030FC006710ADF80400C720ADF800000020ADF853
:10310C0006000020ADF8020000A93248FFF7EAFBE8
:10311C0001213048FFF74AFC01212E48FFF75DFCE6
:10312C0001212C48FFF774FC012201212948FFF7EB
:10313C0031FC0FF285011D20FFF722F805211D201F
:10314C00FFF72BF81D20FFF713F801212148FFF79B
:10315C0013FC07BD80B500200FE0C0B21E4951F82A
:10316C002010002908D0C0B21B4951F82010491E6C
:10317C00C0B2194A42F82010401CC0B22828ECDB1F
:10318C0016480088401C1549088080B2B0F5FA7FBB
:10319C0004DB00F027F811480021018001BD80B547
:1031AC000F4800210180A02200210B4800F066F896
:1031BC00FFF798FF01BD000080B501210548FFF71E
:1031CC0010FC002805D0FFF7C5FF01210148FFF7CF
:1031DC001FFC01BD00040040EC350020CC38002061
:1031EC00CA38002080B500F053F801BD38B5040092
:1031FC00002012490978002901D000201BE0FDF7BE
:10320C003BFC0F490D680E490968002904D00C4994
:10321C00096849680A4A1160FDF732FC002D09D093
:10322C0001202870002028816C6003A068612800B0
:10323C00FDF79FF9280032BD3F000000D038002078
:10324C0084380020074800210160074800210160F4
:10325C000648002101600648002101600548064926
:10326C00016070470004014004040140080401405F
:10327C000C04014014040140FFFF0F0010B504467C
:10328C0010460A460146204600F00AF8204610BDBA
:10329C0002484AF6AA210160704700000030004045
:1032AC0062F30F2262F31F42401810F0030308D0A0
:1032BC00C91A1FD3DB0748BF00F8012D28BF20F81F
:1032CC00022D130030B414461546103928BF20E9DE
:1032DC003C00FAD8490728BF20E90C0048BF40F849
:1032EC00042D890028BF20F8022D48BF00F8012DBD
:1032FC0030BC7047C91818BF00F8012DCB0728BF88
:10330C0000F8012D7047F0000000010002000100E0
:10331C000300010002000100040001000200010092
:10332C000300010002000100050001000200010081
:10333C000300010002000100040001000200010072
:10334C000300010002000100060001000200010060
:10335C000300010002000100040001000200010052
:10336C000300010002000100050001000200010041
:10337C000300010002000100040001000200010032
:10338C00030001000200010007000100020001001F
:10339C000300010002000100040001000200010012
:1033AC000300010002000100050001000200010001
:1033BC0003000100020001000400010002000100F2
:1033CC0003000100020001000600010002000100E0
:1033DC0003000100020001000400010002000100D2
:1033EC0003000100020001000500010002000100C1
:1033FC0003000100020001000400010002000100B2
:10340C00030001000200010010B50749794418318E
:10341C00064C7C44163404E00A68081D5118884791
:10342C000146A142F8D110BD0800000028000000A0
:10343C0083EAFFFF5C3800007C00002000000000E5
:10344C004BD8FFFF7C00000038010000000000207A
:10345C000000000000F00BF8002801D0FFF7D4FFAB
:10346C000020C046C046FFF7A3FD00F002F8012083
:10347C00704700F001B801000746384600F002F82A
:10348C00FBE7010080B5C046C046024A1100182077
:10349C00ABBEFBE72600020075432F4F532D494965
:1034AC0020546D724C6F636B0000000075432F4FFE
:1034BC00532D494920546D725369676E616C00003D
:1034CC0042617474657279204D626F78000000005F
:1034DC0075432F4F532D49492049646C65000000FA
:1034EC0075432F4F532D49492053746174000000CC
:1034FC0075432F4F532D494920546D720000000025
:10350C00FEE7FEE7FEE7FEE7FEE7FEE7C046C04645
:10351C00C046C046FFF79EFF5374617274000000F2
:10352C0078563412100014000200050001003F0010
:10353C0001000100050001001800780001000400E2
:10354C000100040018000800010004000100010043
:10355C000100800001001600010001008000010044
:10356C00010040005800E803010023010100100095
:10357C00010008000A002800800208004000C21365
:10358C006400C8002C019001F4015802BC02200315
:10359C008403E8034C04B00414057805C800400605
:1035AC00A40608076C07D00700000000000000000C
:1035BC0000000000000000000000000000000000FF
:1035CC0000000000000000000000000000000000EF
:1035DC0000000000000000000000000000000000DF
:1035EC0000000000000000000102030401020304BB
:0C35FC0006070809020406080A00010086
:0400000508003519A1
:00000001FF
